{
  "contractName": "Company",
  "abi": [
    {
      "inputs": [
        {
          "internalType": "address",
          "name": "_master",
          "type": "address"
        }
      ],
      "stateMutability": "nonpayable",
      "type": "constructor"
    },
    {
      "anonymous": false,
      "inputs": [
        {
          "indexed": true,
          "internalType": "address",
          "name": "master",
          "type": "address"
        }
      ],
      "name": "MasterSetup",
      "type": "event"
    },
    {
      "anonymous": false,
      "inputs": [
        {
          "indexed": true,
          "internalType": "address",
          "name": "owner",
          "type": "address"
        }
      ],
      "name": "OwnerAddition",
      "type": "event"
    },
    {
      "anonymous": false,
      "inputs": [
        {
          "indexed": true,
          "internalType": "address",
          "name": "owner",
          "type": "address"
        }
      ],
      "name": "OwnerRemoval",
      "type": "event"
    },
    {
      "anonymous": false,
      "inputs": [
        {
          "indexed": true,
          "internalType": "address",
          "name": "receiver",
          "type": "address"
        },
        {
          "indexed": false,
          "internalType": "uint256",
          "name": "amount",
          "type": "uint256"
        }
      ],
      "name": "Transfer",
      "type": "event"
    },
    {
      "inputs": [],
      "name": "master",
      "outputs": [
        {
          "internalType": "address",
          "name": "",
          "type": "address"
        }
      ],
      "stateMutability": "view",
      "type": "function"
    },
    {
      "inputs": [
        {
          "internalType": "uint256",
          "name": "",
          "type": "uint256"
        }
      ],
      "name": "owners",
      "outputs": [
        {
          "internalType": "address",
          "name": "",
          "type": "address"
        }
      ],
      "stateMutability": "view",
      "type": "function"
    },
    {
      "inputs": [],
      "name": "getMaster",
      "outputs": [
        {
          "internalType": "address",
          "name": "",
          "type": "address"
        }
      ],
      "stateMutability": "view",
      "type": "function"
    },
    {
      "inputs": [],
      "name": "getOwners",
      "outputs": [
        {
          "internalType": "address[]",
          "name": "",
          "type": "address[]"
        }
      ],
      "stateMutability": "view",
      "type": "function"
    },
    {
      "inputs": [
        {
          "internalType": "address",
          "name": "owner",
          "type": "address"
        }
      ],
      "name": "checkIfOwner",
      "outputs": [
        {
          "internalType": "bool",
          "name": "",
          "type": "bool"
        }
      ],
      "stateMutability": "view",
      "type": "function"
    },
    {
      "inputs": [
        {
          "internalType": "address",
          "name": "owner",
          "type": "address"
        }
      ],
      "name": "addOwner",
      "outputs": [],
      "stateMutability": "nonpayable",
      "type": "function"
    },
    {
      "inputs": [
        {
          "internalType": "address",
          "name": "owner",
          "type": "address"
        }
      ],
      "name": "removeOwner",
      "outputs": [],
      "stateMutability": "nonpayable",
      "type": "function"
    },
    {
      "inputs": [
        {
          "internalType": "address",
          "name": "receiver",
          "type": "address"
        },
        {
          "internalType": "uint256",
          "name": "_share",
          "type": "uint256"
        }
      ],
      "name": "giveShare",
      "outputs": [],
      "stateMutability": "nonpayable",
      "type": "function"
    },
    {
      "inputs": [
        {
          "internalType": "address",
          "name": "receiver",
          "type": "address"
        },
        {
          "internalType": "uint256",
          "name": "_share",
          "type": "uint256"
        }
      ],
      "name": "addShare",
      "outputs": [],
      "stateMutability": "nonpayable",
      "type": "function"
    }
  ],
  "bytecode": "0x60806040523480156200001157600080fd5b50604051620015ee380380620015ee8339818101604052810190620000379190620001c2565b600073ffffffffffffffffffffffffffffffffffffffff168173ffffffffffffffffffffffffffffffffffffffff1603620000a9576040517f08c379a0000000000000000000000000000000000000000000000000000000008152600401620000a09062000255565b60405180910390fd5b806000806101000a81548173ffffffffffffffffffffffffffffffffffffffff021916908373ffffffffffffffffffffffffffffffffffffffff16021790555062989680600360008060009054906101000a900473ffffffffffffffffffffffffffffffffffffffff1673ffffffffffffffffffffffffffffffffffffffff1673ffffffffffffffffffffffffffffffffffffffff168152602001908152602001600020819055505062000277565b600080fd5b600073ffffffffffffffffffffffffffffffffffffffff82169050919050565b60006200018a826200015d565b9050919050565b6200019c816200017d565b8114620001a857600080fd5b50565b600081519050620001bc8162000191565b92915050565b600060208284031215620001db57620001da62000158565b5b6000620001eb84828501620001ab565b91505092915050565b600082825260208201905092915050565b7f4d617374657220616464726573732063616e6e6f742062652061207a65726f00600082015250565b60006200023d601f83620001f4565b91506200024a8262000205565b602082019050919050565b6000602082019050818103600083015262000270816200022e565b9050919050565b61136780620002876000396000f3fe608060405234801561001057600080fd5b50600436106100935760003560e01c80637065cb48116100665780637065cb481461011e578063760db25f1461013a578063a0e67e2b14610156578063c022eb2814610174578063ee97f7f3146101a457610093565b8063025e7c2714610098578063173825d9146100c857806350f4f9f8146100e45780635a99719e14610100575b600080fd5b6100b260048036038101906100ad9190610daf565b6101c2565b6040516100bf9190610e1d565b60405180910390f35b6100e260048036038101906100dd9190610e64565b610201565b005b6100fe60048036038101906100f99190610e91565b6104e3565b005b610108610809565b6040516101159190610e1d565b60405180910390f35b61013860048036038101906101339190610e64565b610832565b005b610154600480360381019061014f9190610e91565b6109d2565b005b61015e610c6c565b60405161016b9190610f8f565b60405180910390f35b61018e60048036038101906101899190610e64565b610cfa565b60405161019b9190610fcc565b60405180910390f35b6101ac610d50565b6040516101b99190610e1d565b60405180910390f35b600181815481106101d257600080fd5b906000526020600020016000915054906101000a900473ffffffffffffffffffffffffffffffffffffffff1681565b60008054906101000a900473ffffffffffffffffffffffffffffffffffffffff1673ffffffffffffffffffffffffffffffffffffffff163373ffffffffffffffffffffffffffffffffffffffff161461025957600080fd5b600260008273ffffffffffffffffffffffffffffffffffffffff1673ffffffffffffffffffffffffffffffffffffffff16815260200190815260200160002060009054906101000a900460ff166102af57600080fd5b6000600260008373ffffffffffffffffffffffffffffffffffffffff1673ffffffffffffffffffffffffffffffffffffffff16815260200190815260200160002060006101000a81548160ff02191690831515021790555060005b6001808054905061031b9190611016565b811015610455578173ffffffffffffffffffffffffffffffffffffffff166001828154811061034d5761034c61104a565b5b9060005260206000200160009054906101000a900473ffffffffffffffffffffffffffffffffffffffff1673ffffffffffffffffffffffffffffffffffffffff16036104425760018080805490506103a59190611016565b815481106103b6576103b561104a565b5b9060005260206000200160009054906101000a900473ffffffffffffffffffffffffffffffffffffffff16600182815481106103f5576103f461104a565b5b9060005260206000200160006101000a81548173ffffffffffffffffffffffffffffffffffffffff021916908373ffffffffffffffffffffffffffffffffffffffff160217905550610455565b808061044d90611079565b91505061030a565b506001805480610468576104676110c1565b5b6001900381819060005260206000200160006101000a81549073ffffffffffffffffffffffffffffffffffffffff021916905590558073ffffffffffffffffffffffffffffffffffffffff167f8001553a916ef2f495d26a907cc54d96ed840d7bda71e73194bf5a9df7a76b9060405160405180910390a250565b600260003373ffffffffffffffffffffffffffffffffffffffff1673ffffffffffffffffffffffffffffffffffffffff16815260200190815260200160002060009054906101000a900460ff1680610586575060008054906101000a900473ffffffffffffffffffffffffffffffffffffffff1673ffffffffffffffffffffffffffffffffffffffff163373ffffffffffffffffffffffffffffffffffffffff16145b6105c5576040517f08c379a00000000000000000000000000000000000000000000000000000000081526004016105bc9061114d565b60405180910390fd5b600260008373ffffffffffffffffffffffffffffffffffffffff1673ffffffffffffffffffffffffffffffffffffffff16815260200190815260200160002060009054906101000a900460ff16610651576040517f08c379a0000000000000000000000000000000000000000000000000000000008152600401610648906111b9565b60405180910390fd5b60008054906101000a900473ffffffffffffffffffffffffffffffffffffffff1673ffffffffffffffffffffffffffffffffffffffff168273ffffffffffffffffffffffffffffffffffffffff16036106df576040517f08c379a00000000000000000000000000000000000000000000000000000000081526004016106d690611225565b60405180910390fd5b80600360003373ffffffffffffffffffffffffffffffffffffffff1673ffffffffffffffffffffffffffffffffffffffff168152602001908152602001600020541015610761576040517f08c379a000000000000000000000000000000000000000000000000000000000815260040161075890611291565b60405180910390fd5b80600360008473ffffffffffffffffffffffffffffffffffffffff1673ffffffffffffffffffffffffffffffffffffffff16815260200190815260200160002060008282546107b091906112b1565b925050819055508173ffffffffffffffffffffffffffffffffffffffff167f69ca02dd4edd7bf0a4abb9ed3b7af3f14778db5d61921c7dc7cd545266326de2826040516107fd9190611316565b60405180910390a25050565b60008060009054906101000a900473ffffffffffffffffffffffffffffffffffffffff16905090565b60008054906101000a900473ffffffffffffffffffffffffffffffffffffffff1673ffffffffffffffffffffffffffffffffffffffff163373ffffffffffffffffffffffffffffffffffffffff161461088a57600080fd5b6001600260008373ffffffffffffffffffffffffffffffffffffffff1673ffffffffffffffffffffffffffffffffffffffff16815260200190815260200160002060006101000a81548160ff0219169083151502179055506001819080600181540180825580915050600190039060005260206000200160009091909190916101000a81548173ffffffffffffffffffffffffffffffffffffffff021916908373ffffffffffffffffffffffffffffffffffffffff16021790555062989680600360008373ffffffffffffffffffffffffffffffffffffffff1673ffffffffffffffffffffffffffffffffffffffff168152602001908152602001600020819055508073ffffffffffffffffffffffffffffffffffffffff167ff39e6e1eb0edcf53c221607b54b00cd28f3196fed0a24994dc308b8f611b682d60405160405180910390a250565b600260003373ffffffffffffffffffffffffffffffffffffffff1673ffffffffffffffffffffffffffffffffffffffff16815260200190815260200160002060009054906101000a900460ff1680610a75575060008054906101000a900473ffffffffffffffffffffffffffffffffffffffff1673ffffffffffffffffffffffffffffffffffffffff163373ffffffffffffffffffffffffffffffffffffffff16145b610ab4576040517f08c379a0000000000000000000000000000000000000000000000000000000008152600401610aab9061114d565b60405180910390fd5b80600360003373ffffffffffffffffffffffffffffffffffffffff1673ffffffffffffffffffffffffffffffffffffffff168152602001908152602001600020541015610b36576040517f08c379a0000000000000000000000000000000000000000000000000000000008152600401610b2d90611291565b60405180910390fd5b80600360003373ffffffffffffffffffffffffffffffffffffffff1673ffffffffffffffffffffffffffffffffffffffff16815260200190815260200160002054610b819190611016565b600360003373ffffffffffffffffffffffffffffffffffffffff1673ffffffffffffffffffffffffffffffffffffffff1681526020019081526020016000208190555080600360008473ffffffffffffffffffffffffffffffffffffffff1673ffffffffffffffffffffffffffffffffffffffff1681526020019081526020016000206000828254610c1391906112b1565b925050819055508173ffffffffffffffffffffffffffffffffffffffff167f69ca02dd4edd7bf0a4abb9ed3b7af3f14778db5d61921c7dc7cd545266326de282604051610c609190611316565b60405180910390a25050565b60606001805480602002602001604051908101604052809291908181526020018280548015610cf057602002820191906000526020600020905b8160009054906101000a900473ffffffffffffffffffffffffffffffffffffffff1673ffffffffffffffffffffffffffffffffffffffff1681526020019060010190808311610ca6575b5050505050905090565b6000600260008373ffffffffffffffffffffffffffffffffffffffff1673ffffffffffffffffffffffffffffffffffffffff16815260200190815260200160002060009054906101000a900460ff169050919050565b60008054906101000a900473ffffffffffffffffffffffffffffffffffffffff1681565b600080fd5b6000819050919050565b610d8c81610d79565b8114610d9757600080fd5b50565b600081359050610da981610d83565b92915050565b600060208284031215610dc557610dc4610d74565b5b6000610dd384828501610d9a565b91505092915050565b600073ffffffffffffffffffffffffffffffffffffffff82169050919050565b6000610e0782610ddc565b9050919050565b610e1781610dfc565b82525050565b6000602082019050610e326000830184610e0e565b92915050565b610e4181610dfc565b8114610e4c57600080fd5b50565b600081359050610e5e81610e38565b92915050565b600060208284031215610e7a57610e79610d74565b5b6000610e8884828501610e4f565b91505092915050565b60008060408385031215610ea857610ea7610d74565b5b6000610eb685828601610e4f565b9250506020610ec785828601610d9a565b9150509250929050565b600081519050919050565b600082825260208201905092915050565b6000819050602082019050919050565b610f0681610dfc565b82525050565b6000610f188383610efd565b60208301905092915050565b6000602082019050919050565b6000610f3c82610ed1565b610f468185610edc565b9350610f5183610eed565b8060005b83811015610f82578151610f698882610f0c565b9750610f7483610f24565b925050600181019050610f55565b5085935050505092915050565b60006020820190508181036000830152610fa98184610f31565b905092915050565b60008115159050919050565b610fc681610fb1565b82525050565b6000602082019050610fe16000830184610fbd565b92915050565b7f4e487b7100000000000000000000000000000000000000000000000000000000600052601160045260246000fd5b600061102182610d79565b915061102c83610d79565b92508282101561103f5761103e610fe7565b5b828203905092915050565b7f4e487b7100000000000000000000000000000000000000000000000000000000600052603260045260246000fd5b600061108482610d79565b91507fffffffffffffffffffffffffffffffffffffffffffffffffffffffffffffffff82036110b6576110b5610fe7565b5b600182019050919050565b7f4e487b7100000000000000000000000000000000000000000000000000000000600052603160045260246000fd5b600082825260208201905092915050565b7f4f6e6c79206d6173746572206f72206f776e6572732063616e2063616c6c2e00600082015250565b6000611137601f836110f0565b915061114282611101565b602082019050919050565b600060208201905081810360008301526111668161112a565b9050919050565b7f4f6e6c7920616e206f776e65722063616e207265636569766500000000000000600082015250565b60006111a36019836110f0565b91506111ae8261116d565b602082019050919050565b600060208201905081810360008301526111d281611196565b9050919050565b7f43616e2774207472616e66657220746f206d6173746572000000000000000000600082015250565b600061120f6017836110f0565b915061121a826111d9565b602082019050919050565b6000602082019050818103600083015261123e81611202565b9050919050565b7f53686172652065786365656473207468652073656e6465722773206c696d6974600082015250565b600061127b6020836110f0565b915061128682611245565b602082019050919050565b600060208201905081810360008301526112aa8161126e565b9050919050565b60006112bc82610d79565b91506112c783610d79565b9250827fffffffffffffffffffffffffffffffffffffffffffffffffffffffffffffffff038211156112fc576112fb610fe7565b5b828201905092915050565b61131081610d79565b82525050565b600060208201905061132b6000830184611307565b9291505056fea26469706673582212203a7b9cc0902339e783c36faae401a66847fee6a5fb003def47401c47c05a5abd64736f6c634300080e0033",
  "immutableReferences": {},
  "source": "// SPDX-License-Identifier: MIT\npragma solidity >=0.4.22 <0.9.0;\n\ncontract Company {\n    // 1. Variables\n    // Address of the master\n    address public master;\n\n    // List of all the owners\n    address[] public owners;\n\n    // Mapping to keep track of all the owners\n    mapping(address => bool) isOwner;\n\n    // Mapping of shares owned by shareholders\n    mapping(address => uint256) share;\n\n    // 2. Events\n    // When Master is setup\n    event MasterSetup(address indexed master);\n\n    // When an owner is added by master\n    event OwnerAddition(address indexed owner);\n\n    // When shares are transferred between shareholders\n    event Transfer(address indexed receiver, uint256 amount);\n\n    // When an owner is removed\n    event OwnerRemoval(address indexed owner);\n\n    // 3. Modifiers\n    // Checks if the sender is master\n    modifier onlyMaster() {\n        require(msg.sender == address(master));\n        _;\n    }\n\n    // Checks if the sender is owner\n    modifier onlyOwner() {\n        require(isOwner[msg.sender], \"Only owners can call.\");\n        _;\n    }\n\n    // Checks if the sender is admin\n    modifier onlyAdmins() {\n        require(\n            isOwner[msg.sender] || msg.sender == address(master),\n            \"Only master or owners can call.\"\n        );\n        _;\n    }\n\n    // Contructor sets the master address of Company contract\n    constructor(address _master) {\n        require(_master != address(0), \"Master address cannot be a zero\");\n        master = _master;\n        share[master] = 10000000;\n    }\n\n    // Returns the address of the master\n    function getMaster() public view returns (address) {\n        return master;\n    }\n\n    // Returns the list of all owners\n    function getOwners() public view returns (address[] memory) {\n        return owners;\n    }\n\n    // Check if a given address is owner or not\n    function checkIfOwner(address owner) public view returns (bool) {\n        return isOwner[owner];\n    }\n\n    // Add a new owner\n    function addOwner(address owner) public onlyMaster {\n        isOwner[owner] = true;\n        owners.push(owner);\n        share[owner] = 10000000;\n\n        emit OwnerAddition(owner);\n    }\n\n    // Remove an owner\n    function removeOwner(address owner) public onlyMaster {\n        require(isOwner[owner]);\n        isOwner[owner] = false;\n\n        for (uint256 i = 0; i < owners.length - 1; i++) {\n            if (owners[i] == owner) {\n                owners[i] = owners[owners.length - 1];\n                break;\n            }\n        }\n\n        owners.pop();\n\n        emit OwnerRemoval(owner);\n    }\n\n    // Transfer share\n    function giveShare(address receiver, uint256 _share) public onlyAdmins {\n        require(\n            share[msg.sender] >= _share,\n            \"Share exceeds the sender's limit\"\n        );\n\n        share[msg.sender] = share[msg.sender] - _share;\n        share[receiver] += _share;\n\n        emit Transfer(receiver, _share);\n    }\n\n    // Add share to any of the owners\n    function addShare(address receiver, uint256 _share) public onlyAdmins {\n        // 1. Check if receiver address is correct\n        require(isOwner[receiver], \"Only an owner can receive\");\n\n        // 2. Check if address is not by master\n        require(\n            address(receiver) != address(master),\n            \"Can't tranfer to master\"\n        );\n\n        // 3. Transfer share\n        require(\n            share[msg.sender] >= _share,\n            \"Share exceeds the sender's limit\"\n        );\n\n        share[receiver] += _share;\n\n        emit Transfer(receiver, _share);\n    }\n}\n",
  "sourcePath": "/home/imsks/Public/git-repos/web3/polygon-unit-testing/contracts/Company.sol",
  "compiler": {
    "name": "solc",
    "version": "0.8.14+commit.80d49f37.Emscripten.clang"
  },
  "schemaVersion": "3.4.7",
  "updatedAt": "2022-07-29T03:17:28.885Z",
  "devdoc": {
    "kind": "dev",
    "methods": {},
    "version": 1
  },
  "userdoc": {
    "kind": "user",
    "methods": {},
    "version": 1
  }
}